:0400000051EF03F0C9
:100300000053747564656E74436F6D70616E696FD0
:100310006E00202048656C6C6F20576F726C6421F2
:10032000002020204C434420446973706C617900A4
:0103300000CC
:100332002DEC02F08AEC02F0120E0C6E030E0D6E22
:10034200DFEC02F0000E0D6E080E0C6E000E0F6E4A
:10035200010E0E6EB6EC02F0000E096E310E086E42
:100362005DEC02F0010E28EC03F0000E0D6E080E9B
:100372000C6E000E0F6E010E0E6EB6EC02F0000E49
:10038200096E320E086E5DEC02F0010E28EC03F0ED
:10039200000E0D6E080E0C6E000E0F6E010E0E6E2C
:1003A200B6EC02F0000E096E330E086E5DEC02F040
:1003B200010E28EC03F0000E096E010E086EF9EC36
:1003C20001F0210E0C6E030E0D6EDFEC02F0000E3A
:1003D2000D6E000E0C6E000E0F6E010E0E6EB6EC60
:1003E20002F0010E0C6E030E0D6EDFEC02F0FFD771
:1003F2000D0E0A6EFC0EE82EFED70A2EFCD708C0A0
:1004020001F009C002F0000E046E000E036E06EC4D
:1004120003F008C00AF009C00BF00A3A0B3AF00EDA
:100422000B160A500F0B0B12F00E0A160AC008F038
:100432000BC009F0030E0A6E980EE82EFED70A2EA4
:10044200FCD708C001F009C002F0000E046E000ED5
:10045200036E06EC03F01200720ED36E0F015A699E
:100462000F015B690F015C69000E0F015D6F880E61
:100472000F01596F360E0F01586F3F0EC16E030EFA
:10048200926E210E936E180E946E9868000E806E16
:10049200000E816E000E826EF294080ED56E000E72
:1004A200D76E000ED66ED58E800E016E080E42EC0F
:1004B20003F03F0EC86E12000D0E0A6EFC0EE82EFF
:1004C200FED70A2EFCD708C001F009C002F0000EC8
:1004D200046E010E036E06EC03F008C00AF009C0B8
:1004E2000BF00A3A0B3AF00E0B160A500F0B0B12D6
:1004F200F00E0A160AC008F00BC009F008C001F09D
:1005020009C002F0000E046E010E036E06EC03F049
:100512001200000E836E000E956E838E270E0C6EF7
:10052200F50EE82EFED70C2EFCD700F0000E096E59
:10053200320E086EF9EC01F0000E096E280E086EFC
:10054200F9EC01F0000E096E0C0E086EF9EC01F0E8
:10055200000E096E010E086EF9EC01F0000E096E34
:10056200060E086EF9EC01F012000FBE06D00F5015
:1005720024E1020E0E5CD8B012000DBE06D00D5062
:100582001CE1100E0C5CD8B012000E040F10D8B48F
:1005920002D0800E01D0C00E0C10116E0D50126EE2
:1005A20011C008F012C009F0F9EC01F00D0E106E46
:1005B200FC0EE82EFED7102EFCD71200000E116E94
:1005C200000E106E12D010500C240E6E11500D2021
:1005D2000F6E0EC0F6FF0FC0F7FF0800F550086E51
:1005E200096A5DEC02F0104A112A10500C240E6EBA
:1005F20011500D200F6E0EC0F6FF0FC0F7FF08005E
:10060200F5500009D8B41200DED701C005F002C0CF
:1006120006F0040E076E063406320532072EFBD7AB
:1006220005C001F006C002F00F0E0114016E026A4D
:100632008350F00B836E83500110836E03B002D09F
:10064200839801D08388839A838C839C1200026EE4
:10065200000E036E11D0000E046E630E046401D00E
:100662000AD01A0E016EF80EE82EFED7012EFCD724
:1006720000D0042AF2D7032A0250035CD8B0120039
:10068200EAD7026E3F0EC716000EC66E000EC56E8A
:100692000250C6120150C71294869488C68A12006C
:0E06A200000EF86E030EF76E000199EF01F0E6
:020000040020DA
:08000000FFFFFFFFFFFFFFFF00
:020000040030CA
:0A000000FF09191EFF8180FF01FFB8
:00000001FF
