:040000008AEF03F090
:1003000000FFFF155BB9D010A08007AB280064E7A1
:100310001E41717D00C682554F0C9745B82DFC9744
:1003200080A1046ADF002D6EC580C5B0FED795ECB4
:1003300003F0200E02EC03F00009D8B402D0010E45
:10034000120095EC03F02D5002EC03F095EC03F055
:10035000C582C5B2FED795EC03F0210E02EC03F086
:1003600095EC03F07CEC03F02E6E95EC03F0C59A4F
:10037000C588C5B8FED795EC03F07CEC03F02F6E72
:1003800095EC03F0C58AC588C5B8FED795EC03F097
:10039000C584C5B4FED795EC03F02E50296E2A6AA9
:1003A00027C0D9FF28C0DAFF29C0DEFF2AC0DDFF41
:1003B00027C0D9FF28C0DAFFDE50DD6EDF6A27C014
:1003C000D9FF28C0DAFFDECF29F0DDCF2AF02F5089
:1003D0002B6E2C6A29502B122A502C1227C0D9FFC1
:1003E00028C0DAFF2BC0DEFF2CC0DDFF000E12009C
:1003F000000E386E110E386401D018D03850020D3E
:10040000010EF324F66E030EF420F76E3850020D41
:10041000010EF324D96E000EF420DA6E0900F5CF38
:10042000DEFF0800F5CFDDFF382AE4D701C036F043
:1004300002C037F00190000E5BEC02F00009D8B466
:1004400002D0010E1200010E386E110E386401D078
:100450000AD038505BEC02F00009D8B402D0010E8B
:100460001200382AF2D7010E3610016E3750026E94
:10047000000E5BEC02F00009D8B402D0010E1200AD
:10048000000E266E140E256E54EC03F006D0000EFE
:10049000266E020E256E54EC03F0360E306E000E02
:1004A000316E31EC03F036503710D8B4F0D7AAECE7
:1004B00003F0000E12002B6E2B50020D010EF324E0
:1004C000D96E000EF420DA6EDECF27F0DDCF28F0F3
:1004D00028C027F0286A2750296E2B50020D010EE4
:1004E000F324D96E000EF420DA6EDF502A6EC58038
:1004F000C5B0FED795EC03F0200E02EC03F0000926
:10050000D8B402D0010E120095EC03F02B5002EC8F
:1005100003F095EC03F0295002EC03F095EC03F0A6
:100520002A5002EC03F095EC03F0C584C5B4FED765
:1005300095EC03F0000E1200000E266E140E256ED0
:1005400054EC03F0D2EC02F03B0E306E000E316E34
:100550009EEC03F0100E3B1803E1100E3C18D8A4DB
:10056000A9EC03F0F8EC01F00009D8A4A9EC03F021
:100570003A0E256E000E266EA6EC03F0396E390495
:10058000D8B408D0F5D7010EA8EC03F0F1D7A9EC48
:1005900003F0EED73A50010AD8B4F5D7810AD8B49F
:1005A000F6D7E6D7720ED36E0F015A690F015B6959
:1005B0000F015C69000E0F015D6F880E0F01596F0E
:1005C000360E0F01586F3F0EC16E030E926E210E54
:1005D000936E180E946E9868000E806E000E816EF9
:1005E000000E826EF294080ED56E000ED76E000ECD
:1005F000D66ED58E800E256E080E6DEC03F03F0E84
:10060000C86E1200266E26C0C9FFC6AE02D0FF0E0D
:100610001200C6500F0B080AD8B40FD0C6500F0BEB
:100620000B0AD8B40AD0C6889EA6FED7C7A4C7B006
:1006300002D0FE0E1200000E1200C6500F0B080A68
:10064000D8B405D0C6500F0B0B0AD8A41200C7B0FF
:10065000FED795EC03F0C5AC02D0FE0E1200000EE2
:100660001200340E276E000E286E130E93EC01F06C
:100670000009D8B402D0010E1200200E3416000E6C
:10068000351634503510D8B402D0010E01D0000E0A
:10069000326E336A30C0D9FF31C0DAFF32C0DEFFBC
:1006A00033C0DDFF000E1200000E286E000E276E14
:1006B0000FD0000E286E640E276E03D02706D8A038
:1006C000280627502810D8A4F9D72506D8A0260632
:1006D00025502610D8B41200ECD7266E3F0EC71650
:1006E000000EC66E000EC56E2650C6122550C712EB
:1006F00094869488C68A1200C6500F0B080AD8B494
:1007000004D0C6500F0B0B0AD8B4C586C7A0FED7BD
:10071000C950120000EE01F0240EEE6AE806FDE179
:10072000000EF86E00019CEF02F0C5CF25F01F0E01
:100730002516D8A4FAD7C7A41200F7D730C027F0DF
:1007400031C028F01C0E93EC01F01200000E1200D4
:060750001200FFD71200A9
:020000040020DA
:08000000FFFFFFFFFFFFFFFF00
:020000040030CA
:0A000000FF09191EFF8180FF01FFB8
:00000001FF
