:04000000B1EF03F069
:1003000000FFFF155BB9D010A08007AB280064E7A1
:100310001E41717D00C682554F0C9745B82DFC9744
:1003200080A1046ADF002D6EC580C5B0FED7BCEC8D
:1003300003F0200E09EC03F00009D8B402D0010E3E
:100340001200BCEC03F02D5009EC03F0BCEC03F000
:10035000C582C5B2FED7BCEC03F0210E09EC03F058
:10036000BCEC03F0A3EC03F02E6EBCEC03F0C59ADA
:10037000C588C5B8FED7BCEC03F0A3EC03F02F6E24
:10038000BCEC03F0C58AC588C5B8FED7BCEC03F049
:10039000C584C5B4FED7BCEC03F02E50296E2A6A82
:1003A00027C0D9FF28C0DAFF29C0DEFF2AC0DDFF41
:1003B00027C0D9FF28C0DAFFDE50DD6EDF6A27C014
:1003C000D9FF28C0DAFFDECF29F0DDCF2AF02F5089
:1003D0002B6E2C6A29502B122A502C1227C0D9FFC1
:1003E00028C0DAFF2BC0DEFF2CC0DDFF000E12009C
:1003F000000E386E110E386401D018D03850020D3E
:10040000010EF324F66E030EF420F76E3850020D41
:10041000010EF324D96E000EF420DA6E0900F5CF38
:10042000DEFF0800F5CFDDFF382AE4D701C036F043
:1004300002C037F00190000E5BEC02F00009D8B466
:1004400002D0010E1200010E386E110E386401D078
:100450000AD038505BEC02F00009D8B402D0010E8B
:100460001200382AF2D7010E3610016E3750026E94
:10047000000E5BEC02F00009D8B402D0010E1200AD
:10048000000E266E140E256E7BEC03F006D0000ED7
:10049000266E020E256E7BEC03F0360E306E000EDB
:1004A000316E38EC03F036503710D8B4F0D7CFECBB
:1004B00003F0000E12002B6E2B50020D010EF324E0
:1004C000D96E000EF420DA6EDECF27F0DDCF28F0F3
:1004D00028C027F0286A2750296E2B50020D010EE4
:1004E000F324D96E000EF420DA6EDF502A6EC58038
:1004F000C5B0FED7BCEC03F0200E09EC03F00009F8
:10050000D8B402D0010E1200BCEC03F02B5009EC61
:1005100003F0BCEC03F0295009EC03F0BCEC03F051
:100520002A5009EC03F0BCEC03F0C584C5B4FED737
:10053000BCEC03F0000E1200000E266E140E256EA9
:100540007BEC03F0D9EC02F03B0E306E000E316E06
:10055000C5EC03F0100E3B1803E1100E3C18D8A4B4
:10056000CEEC03F0F8EC01F00009D8A4CEEC03F0D7
:100570003A0E256E000E266E5BEC03F0396E3904E0
:10058000D8B40CD0F5D7010ECDEC03F0F1D7000EA6
:10059000CDEC03F0EDD7CEEC03F0EAD73A50010AE8
:1005A000D8B4F1D7030AD8B4F2D7820AD8B4F3D7B3
:1005B000DFD7720ED36E0F015A690F015B690F010D
:1005C0005C69000E0F015D6F880E0F01596F360ECA
:1005D0000F01586F3F0EC16E030E926E210E936E87
:1005E000180E946E9868000E806E000E816E000EDC
:1005F000826EF294080ED56E000ED76E000ED66E87
:10060000D58E800E256E080E94EC03F03F0EC86E5A
:100610001200266E26C0C9FFC6AE02D0FF0E120021
:10062000C6500F0B080AD8B40FD0C6500F0B0B0AD8
:10063000D8B40AD0C6889EA6FED7C7A4C7B002D039
:10064000FE0E1200000E1200C6500F0B080AD8B49E
:1006500005D0C6500F0B0B0AD8A41200C7B0FED7A6
:10066000BCEC03F0C5AC02D0FE0E1200000E12006E
:10067000340E276E000E286E130E93EC01F0000965
:10068000D8B402D0010E1200200E3416000E35161A
:1006900034503510D8B402D0010E01D0000E326EA5
:1006A000336A30C0D9FF31C0DAFF32C0DEFF33C059
:1006B000DDFF000E120080B01CD0000E296E000E6F
:1006C000286E29BE06D0295012E10B0E285CD8B046
:1006D0000ED00D0E276EFC0EE82EFED7272EFCD76F
:1006E000284A292A29BEF5D7295001E1EED78050A2
:1006F0001200000E1200000E286E000E276E0FD0A2
:10070000000E286E640E276E03D02706D8A0280698
:1007100027502810D8A4F9D72506D8A0260625509A
:100720002610D8B41200ECD7266E3F0EC716000E66
:10073000C66E000EC56E2650C6122550C71294868E
:100740009488C68A1200C6500F0B080AD8B404D089
:10075000C6500F0B0B0AD8B4C586C7A0FED7C95028
:10076000120000EE01F0240EEE6AE806FDE1000E34
:10077000F86E00019CEF02F0C5CF25F01F0E251684
:10078000D8A4FAD7C7A41200F7D730C027F031C0D9
:1007900028F01C0E93EC01F012001200FFD712009B
:020000040020DA
:08000000FFFFFFFFFFFFFFFF00
:020000040030CA
:0A000000FF09191EFF8180FF01FFB8
:00000001FF
