:04000000B9EF07F05D
:1003000000FFFF155BB9D010A08007AB280064E7A1
:100310001E41717D00C682554F0C9745B82DFC9744
:1003200080A1046ADF0FCFDFFFCBDBFBFAF9F8F720
:10033000D6E6F6E3F3F2F1F0010001000B00020053
:100340000B0000000B000F0003000E0003000F0065
:0D03500001000200020009006400750000B9
:10035E0080B04FD0000E056E000E046E05BE06D0A6
:10036E00055012E10B0E045CD8B00ED00D0E036ECC
:10037E00FC0EE82EFED7032EFCD7044A052A05BE36
:10038E00F5D7055001E1EED780B02AD0000E136EDE
:10039E00010E126E000E076E000E066E07BE06D020
:1003AE00075013E10B0E065CD8B00FD0130E036E80
:1003BE002D0EE82EFED7032EFCD700F0064A072A94
:1003CE0007BEF4D7075001E1EDD780B004D0000E80
:1003DE00136E060E126E12C001F013C002F0120060
:1003EE00000E136E000E126E12C001F013C002F05A
:1003FE00120080B24ED0000E096E000E086E09BEBD
:10040E0006D0095012E10B0E085CD8B00ED00D0EBE
:10041E00036EFC0EE82EFED7032EFCD7084A092ADF
:10042E0009BEF5D7095001E1EED780B229D0000EF2
:10043E00136E020E126E000E0B6E000E0A6E0BBEC7
:10044E0006D00B5012E10B0E0A5CD8B00ED0200E67
:10045E00036E2A0EE82EFED7032EFCD70A4A0B2A6D
:10046E000BBEF5D70B5001E1EED780B204D0000ED3
:10047E00136E070E126E12C001F013C002F01200BE
:10048E00000E136E000E126E12C001F013C002F0B9
:10049E00120081B026D0000E0D6E000E0C6E0DBE39
:1004AE0006D00D5012E10B0E0C5CD8B00ED00D0E16
:1004BE00036EFC0EE82EFED7032EFCD70C4A0D2A37
:1004CE000DBEF5D70D5001E1EED781B005D0000E6F
:1004DE00026E030E016E1200000E026E000E016E11
:1004EE00120081BA26D0000E0F6E000E0E6E0FBED9
:1004FE0006D00F5012E10B0E0E5CD8B00ED00D0EC2
:10050E00036EFC0EE82EFED7032EFCD70E4A0F2AE2
:10051E000FBEF5D70F5001E1EED781BA05D0000E10
:10052E00026E040E016E1200000E026E000E016EBF
:10053E00120086B01200000E116E000E106E11BE6B
:10054E0006D0115012E10B0E105CD8B00ED00D0E6D
:10055E00036EFC0EE82EFED7032EFCD7104A112A8E
:10056E0011BEF5D7115001E1EED786B005D0000EC1
:10057E00026E050E016E1200000E026E000E016E6E
:10058E001200010E3EEC07F0560EF66E030EF76EDD
:10059E000800F5CF08F0000E096E540EF66E030E2D
:1005AE00F76E0800F5502AEC05F04A0EF66E030EB3
:1005BE00F76E0800F5CF08F0000E096E480EF66EC5
:1005CE00030EF76E0800F5502AEC05F004EC07F068
:1005DE004E0E0C24176EFD0E0D20186E000E2B14F1
:1005EE002B6EFE0E2C142C6E17502B1218502C1234
:1005FE00020EDBEC05F0000E89EC05F0196E010E13
:10060E0089EC05F01A6E1A50195CD8B034D03E0E33
:10061E00F66E030EF76E0800F5CF08F0010E096EA8
:10062E003C0EF66E030EF76E0800F5502AEC05F040
:10063E00420EF66E030EF76E0800F5CF08F0010EAF
:10064E00096E400EF66E030EF76E0800F5502AEC9A
:10065E0005F0460EF66E030EF76E0800F5CF08F0A5
:10066E00000E096E440EF66E030EF76E0800F5507E
:10067E002AEC05F033D03E0EF66E030EF76E080030
:10068E00F5CF08F0000E096E3C0EF66E030EF76EF7
:10069E000800F5502AEC05F0420EF66E030EF76ECA
:1006AE000800F5CF08F0000E096E400EF66E030E30
:1006BE00F76E0800F5502AEC05F0460EF66E030EA6
:1006CE00F76E0800F5CF08F0010E096E440EF66EB7
:1006DE00030EF76E0800F5502AEC05F0560EF66E76
:1006EE00030EF76E0800F5CF08F0010E096E540EDA
:1006FE00F66E030EF76E0800F5502AEC05F004D0E6
:10070E00200E4D142B6E2C6A2B502C10D8B4F8D70B
:10071E00000E3EEC07F012001F6E000E1C6E000E57
:10072E001B6E010E3EEC07F0560EF66E030EF76EC4
:10073E000800F5CF08F0000E096E540EF66E030E8B
:10074E00F76E0800F5502AEC05F04A0EF66E030E11
:10075E00F76E0800F5CF08F0000E096E480EF66E23
:10076E00030EF76E0800F5502AEC05F01F50B4EC9E
:10077E0006F04A0EF66E030EF76E0800F5CF08F07F
:10078E00010E096E480EF66E030EF76E0800F55058
:10079E002AEC05F004D0200E4D142B6E2C6A2B5033
:1007AE002C10D8B4F8D7100E4D142B6E2C6A2B507B
:1007BE002C10D8A4C8EC02F0000E3EEC07F004ECAE
:1007CE0007F04E0E0C241D6EFD0E0D201E6E000E3B
:1007DE002B142B6EFE0E2C142C6E1D502B121E5035
:1007EE002C12020EDBEC05F004EC07F01200096E81
:1007FE00C580C5B0FED7D6EC07F0200E85EC06F00E
:10080E000009D8B402D0010E1200D6EC07F0095040
:10081E0085EC06F0D6EC07F0C582C5B2FED7D6EC55
:10082E0007F0210E85EC06F0D6EC07F0ABEC07F0E6
:10083E000A6ED6EC07F0C59AC588C5B8FED7D6ECB9
:10084E0007F0ABEC07F00B6ED6EC07F0C58AC58847
:10085E00C5B8FED7D6EC07F0C584C5B4FED7D6EC26
:10086E0007F00A50056E066A03C0D9FF04C0DAFF0E
:10087E0005C0DEFF06C0DDFF03C0D9FF04C0DAFFEE
:10088E00DE50DD6EDF6A03C0D9FF04C0DAFFDECFB3
:10089E0005F0DDCF06F00B50076E086A0550071203
:1008AE000650081203C0D9FF04C0DAFF07C0DEFFEE
:1008BE0008C0DDFF000E1200000E026E140E016E57
:1008CE0025EC07F055EC06F0250E0C6E000E0D6EA5
:1008DE00DFEC07F0100E251803E1100E2618D8A431
:1008EE00E7EC07F0C7EC04F00009D8A4E7EC07F03A
:1008FE00030E136EC40E126E1CEC06F0AFEC01F07C
:10090E0001C023F002C024F019D071EC07F0F6D725
:10091E0062EC07F0F3D78FEC07F0F0D79DEC07F001
:10092E00EDD7000EE8EC07F0E9D7C4EC07F0E6D7F8
:10093E00CDEC07F0E3D7E7EC07F0E0D723C021F0CA
:10094E0024C022F02250000AD8A4D8D72150010A80
:10095E00D8B4DBD7030AD8B4DBD7010AD8B4DBD7B7
:10096E00070AD8B4DBD7010AD8B4DBD7030AD8B448
:10097E00DCD7010AD8B4DCD70F0AD8B4DCD7BED77F
:10098E00000E146E110E146401D018D01450020D06
:10099E00010EF324F66E030EF420F76E1450020DC2
:1009AE00270EF324D96E000EF420DA6E0900F5CF6F
:1009BE00DEFF0800F5CFDDFF142AE4D727C012F0C2
:1009CE0028C013F02790000EDBEC05F00009D8B418
:1009DE0002D0010E1200010E146E110E146401D01D
:1009EE000AD01450DBEC05F00009D8B402D0010E89
:1009FE001200142AF2D7010E1210276E1350286E11
:100A0E00000EDBEC05F00009D8B402D0010E120086
:100A1E00000E026E140E016E25EC07F006D0000ECD
:100A2E00026E020E016E25EC07F0120E0C6E000E19
:100A3E000D6EE1EC06F012501310D8B4F0D7E9ECBD
:100A4E0007F0000E1200116E0904D8A42AD011501E
:100A5E00020D270EF324D96E000EF420DA6EDECFCF
:100A6E000AF0DDCF0BF008C00CF0010E0D6E000E7B
:100A7E000E6E0C2A03D0D8900D360E360C2EFBD7E8
:100A8E000A500D120B500E121150020D270EF324A8
:100A9E00D96E000EF420DA6E0DC0DEFF0EC0DDFF43
:100AAE002DD01150020D270EF324D96E000EF42016
:100ABE00DA6EDECF0AF0DDCF0BF008C00CF0010EBF
:100ACE000D6E000E0E6E0C2A03D0D8900D360E361B
:100ADE000C2EFBD70D1C0F6E0E1C106E0A500F162F
:100AEE000B5010161150020D270EF324D96E000E66
:100AFE00F420DA6E0FC0DEFF10C0DDFF1150DBEC0C
:100B0E0005F01200156E000E166E1504D8A406D050
:100B1E00050E3D103D6E800E3E1005D0FA0E3D14B2
:100B2E003D6E7F0E3E143E6E0B0EDBEC05F0560E48
:100B3E00F66E030EF76E0800F5CF08F0010E096E83
:100B4E00540EF66E030EF76E0800F5502AEC05F003
:100B5E0004D0200E4D143D6E3E6A3D503E10D8B46A
:100B6E00F8D720EE4BF0DECF12F0DDCF13F0090EEA
:100B7E00146ED89013321232142EFBD712507F0BF4
:100B8E00166E560EF66E030EF76E0800F5CF08F0D1
:100B9E00000E096E540EF66E030EF76E0800F55039
:100BAE002AEC05F016501200076E0750020D270EA4
:100BBE00F324D96E000EF420DA6EDECF03F0DDCF13
:100BCE0004F004C003F0046A0350056E0750020DD2
:100BDE00270EF324D96E000EF420DA6EDF50066E67
:100BEE00C580C5B0FED7D6EC07F0200E85EC06F01A
:100BFE000009D8B402D0010E1200D6EC07F007504F
:100C0E0085EC06F0D6EC07F0055085EC06F0D6EC38
:100C1E0007F0065085EC06F0D6EC07F0C584C5B497
:100C2E00FED7D6EC07F0000E12004E0E1224186EF0
:100C3E00FD0E1320196E2C92020EDBEC05F000094E
:100C4E00D8A41200000E2B16FE0E2C16000E146EDB
:100C5E00020E156E18C016F019C017F014501612A9
:100C6E001550171216502B1217502C12020EDBECC9
:100C7E0005F00009D8A41200000E026E020E016EDD
:100C8E0025EC07F01A0E0C6E000E0D6EE1EC06F060
:100C9E000009D8A412001A501B10ECD7720ED36E96
:100CAE000F015A690F015B690F015C69000E0F019C
:100CBE005D6F880E0F01596F360E0F01586F3F0E84
:100CCE00C16E030E926E210E936E180E946E98687E
:100CDE00000E806E000E816E000E826EF294080E73
:100CEE00D56E000ED76E000ED66ED58E800E016EAE
:100CFE00080E80EC07F03F0EC86E1200026E02C0A6
:100D0E00C9FFC6AE02D0FF0E1200C6500F0B080A66
:100D1E00D8B40FD0C6500F0B0B0AD8B40AD0C68861
:100D2E009EA6FED7C7A4C7B002D0FE0E1200000EBC
:100D3E001200C6500F0B080AD8B405D0C6500F0BC0
:100D4E000B0AD8A41200C7B0FED7D6EC07F0C5AC7C
:100D5E0002D0FE0E1200000E1200126E640E121859
:100D6E00D8A412D04E0EF66E030EF76E0800F5CF15
:100D7E0008F0000E096E4C0EF66E030EF76E0800AC
:100D8E00F5502AEC05F01200750E1218D8A41200B8
:100D9E004E0EF66E030EF76E0800F5CF08F0010E3C
:100DAE00096E4C0EF66E030EF76E0800F5502AEC27
:100DBE0005F01200100E036E000E046E130EFEEC04
:100DCE0003F00009D8B402D0010E1200200E101646
:100DDE00000E111610501110D8B402D0010E01D011
:100DEE00000E0E6E0F6A0CC0D9FF0DC0DAFF0EC0DA
:100DFE00DEFF0FC0DDFF000E1200130E036E000E9D
:100E0E00046E130EFEEC03F0FF0E0E6E010E0F6E4F
:100E1E0013C010F014C011F0070E126ED8901132DC
:100E2E001032122EFBD70E5010160F501116B20E96
:100E3E0010240C6E020E11200D6E1200000E046EA8
:100E4E00000E036E0FD0000E046E640E036E03D000
:100E5E000306D8A0040603500410D8A4F9D701063F
:100E6E00D8A0020601500210D8B41200ECD7126EB0
:100E7E003A0EF66E030EF76E0800F5CF08F012C0AC
:100E8E0009F0380EF66E030EF76E0800F5502AECD8
:100E9E0005F0120007D0200E036E2A0EE82EFED7A4
:100EAE00032EFCD70106D8A002060128F4E1022881
:100EBE00D8B41200F0D7030E136EBE0E126E1CECD9
:100ECE0006F0828E000E026E0A0E016E51EC07F0D5
:100EDE00829E1200030E136EC40E126E1CEC06F0F0
:100EEE00828C000E026E0A0E016E51EC07F0829C8F
:100EFE001200026E3F0EC716000EC66E000EC56EB5
:100F0E000250C6120150C71294869488C68A1200E7
:100F1E005A0E206E205093EC03F0828C000E026E5F
:100F2E000A0E016E51EC07F0829C1200580E206ED4
:100F3E00205093EC03F0828E000E026E0A0E016EAC
:100F4E0051EC07F0829E1200C6500F0B080AD8B45F
:100F5E0004D0C6500F0B0B0AD8B4C586C7A0FED757
:100F6E00C950120000EE27F0240EEE6AE806FDE1ED
:100F7E00000EF86E000163EF04F0828E000E026E1A
:100F8E000A0E016E51EC07F0829E1200828E000E48
:100F9E00026E0A0E016E51EC07F0829E1200C5CF52
:100FAE0001F01F0E0116D8A4FAD7C7A41200F7D766
:100FBE000CC003F00DC004F01C0EFEEC03F012008A
:060FCE00FFD71200120023
:020000040020DA
:08000000FFFFFFFFFFFFFFFF00
:020000040030CA
:0A000000FF09191EFF8180FF01FFB8
:00000001FF
