:04000000DEEF04F03B
:1003000000FFFF155BB9D010A08007AB280064E7A1
:100310001E41717D00C682554F0C9745B82DFC9744
:1003200080A1046ADF0080B028D0000E296E000E84
:10033000286E29BE06D0295012E10B0E285CD8B0D9
:100340000ED00D0E276EFC0EE82EFED7272EFCD702
:10035000284A292A29BEF5D7295001E1EED780B0D5
:1003600006D0828C000E266E010E256E1200829C35
:10037000000E266E000E256E120080B226D0000EF2
:100380002B6E000E2A6E2BBE06D02B5012E10B0EE8
:100390002A5CD8B00ED00D0E276EFC0EE82EFED7CC
:1003A000272EFCD72A4A2B2A2BBEF5D72B5001E14A
:1003B000EED780B205D0000E266E020E256E12001A
:1003C000000E266E000E256E120081B026D0000EA3
:1003D0002D6E000E2C6E2DBE06D02D5012E10B0E90
:1003E0002C5CD8B00ED00D0E276EFC0EE82EFED77A
:1003F000272EFCD72C4A2D2A2DBEF5D72D5001E1F2
:10040000EED781B005D0000E266E030E256E1200C9
:10041000000E266E000E256E120081BA26D0000E48
:100420002F6E000E2E6E2FBE06D02F5012E10B0E37
:100430002E5CD8B00ED00D0E276EFC0EE82EFED727
:10044000272EFCD72E4A2F2A2FBEF5D72F5001E199
:10045000EED781BA05D0000E266E040E256E12006E
:10046000000E266E000E256E120086B01200000EE1
:10047000316E000E306E31BE06D0315012E10B0EDF
:10048000305CD8B00ED00D0E276EFC0EE82EFED7D5
:10049000272EFCD7304A312A31BEF5D7315001E141
:1004A000EED786B005D0000E266E050E256E120022
:1004B000000E266E000E256E12002D6EC580C5B092
:1004C000FED7FBEC04F0200E45EC04F00009D8B494
:1004D00002D0010E1200FBEC04F02D5045EC04F0AC
:1004E000FBEC04F0C582C5B2FED7FBEC04F0210E94
:1004F00045EC04F0FBEC04F0D0EC04F02E6EFBECC9
:1005000004F0C59AC588C5B8FED7FBEC04F0D0EC62
:1005100004F02F6EFBEC04F0C58AC588C5B8FED781
:10052000FBEC04F0C584C5B4FED7FBEC04F02E5000
:10053000296E2A6A27C0D9FF28C0DAFF29C0DEFF4A
:100540002AC0DDFF27C0D9FF28C0DAFFDE50DD6EEC
:10055000DF6A27C0D9FF28C0DAFFDECF29F0DDCF60
:100560002AF02F502B6E2C6A29502B122A502C1255
:1005700027C0D9FF28C0DAFF2BC0DEFF2CC0DDFF6B
:10058000000E1200000E386E110E386401D018D023
:100590003850020D010EF324F66E030EF420F76EB0
:1005A0003850020D010EF324D96E000EF420DA6EDD
:1005B0000900F5CFDEFF0800F5CFDDFF382AE4D7CC
:1005C00001C036F002C037F00190000ED4EC03F009
:1005D0000009D8B402D0010E1200010E386E110EBF
:1005E000386401D00AD03850D4EC03F00009D8B4F4
:1005F00002D0010E1200382AF2D7010E3610016E19
:100600003750026E000ED4EC03F00009D8B402D0CB
:10061000010E1200000E266E140E256E97EC04F0EB
:1006200006D0000E266E020E256E97EC04F0360EF4
:10063000306E000E316E74EC04F036503710D8B4C2
:10064000F0D710EC05F0000E1200000E266E140E0E
:10065000256E97EC04F015EC04F0829C829E84ECED
:1006600003F025C03BF026C03CF006D0F2EC04F0CD
:10067000F6D7E9EC04F0F3D73BC039F03CC03AF0D0
:100680003A50000AD8A4EBD73950010AD8B4EED7B3
:10069000030AD8B4EED7E3D793EC01F025C03DF0C0
:1006A00026C03EF015D0F2EC04F0F6D7E9EC04F0E9
:1006B000F3D7000E0DEC05F0EFD7000E0EEC05F0B1
:1006C000EBD7000E0FEC05F0E7D70CEC05F0E4D704
:1006D0003DC039F03EC03AF03A50000AD8A4DCD709
:1006E0003950010AD8B4DFD7030AD8B4DFD7010ADA
:1006F000D8B4DFD7070AD8B4E0D7010AD8B4E1D715
:100700000D0AD8B4E2D7C8D780B026D0000E296E23
:10071000000E286E29BE06D0295012E10B0E285C6F
:10072000D8B00ED00D0E276EFC0EE82EFED7272E69
:10073000FCD7284A292A29BEF5D7295001E1EED74E
:1007400080B005D0000E266E010E256E1200000E40
:10075000266E000E256E120080B21200000E2B6E67
:10076000000E2A6E2BBE06D02B5012E10B0E2A5C17
:10077000D8B00ED00D0E276EFC0EE82EFED7272E19
:10078000FCD72A4A2B2A2BBEF5D72B5001E1EED7F6
:1007900080B205D0000E266E020E256E1200000EED
:1007A000266E000E256E12002B6E2B50020D010ED0
:1007B000F324D96E000EF420DA6EDECF27F0DDCF01
:1007C00028F028C027F0286A2750296E2B50020DE8
:1007D000010EF324D96E000EF420DA6EDF502A6E7B
:1007E000C580C5B0FED7FBEC04F0200E45EC04F04C
:1007F0000009D8B402D0010E1200FBEC04F02B501B
:1008000045EC04F0FBEC04F0295045EC04F0FBEC63
:1008100004F02A5045EC04F0FBEC04F0C584C5B4A8
:10082000FED7FBEC04F0000E1200720ED36E0F0127
:100830005A690F015B690F015C69000E0F015D6F62
:10084000880E0F01596F360E0F01586F3F0EC16EA3
:10085000030E926E210E936E180E946E9868000E21
:10086000806E000E816E000E826EF294080ED56EC0
:10087000000ED76E000ED66ED58E800E256E080E39
:10088000C1EC04F03F0EC86E1200266E26C0C9FFF0
:10089000C6AE02D0FF0E1200C6500F0B080AD8B425
:1008A0000FD0C6500F0B0B0AD8B40AD0C6889EA62C
:1008B000FED7C7A4C7B002D0FE0E1200000E120071
:1008C000C6500F0B080AD8B405D0C6500F0B0B0A40
:1008D000D8A41200C7B0FED7FBEC04F0C5AC02D020
:1008E000FE0E1200000E1200340E276E000E286E4F
:1008F000130E5DEC02F00009D8B402D0010E120014
:10090000200E3416000E351634503510D8B402D0EF
:10091000010E01D0000E326E336A30C0D9FF31C0F3
:10092000DAFF32C0DEFF33C0DDFF000E1200000E22
:10093000286E000E276E0FD0000E286E640E276EF4
:1009400003D02706D8A0280627502810D8A4F9D706
:100950002506D8A0260625502610D8B41200ECD7BC
:1009600007D0200E276E2A0EE82EFED7272EFCD7A2
:100970002506D8A026062528F4E12628D8B412009A
:10098000F0D7266E3F0EC716000EC66E000EC56E5F
:100990002650C6122550C71294869488C68A120023
:1009A000C6500F0B080AD8B404D0C6500F0B0B0A60
:1009B000D8B4C586C7A0FED7C950120000EE01F01A
:1009C000240EEE6AE806FDE1000EF86E000125EF48
:1009D00003F0828E000E266E0A0E256EB0EC04F037
:1009E000829E1200828C000E266E0A0E256EB0ECDE
:1009F00004F0829C1200C5CF25F01F0E2516D8A446
:100A0000FAD7C7A41200F7D730C027F031C028F0BA
:100A10001C0E5DEC02F01200FFD712001200120053
:020A20001200C2
:020000040020DA
:08000000FFFFFFFFFFFFFFFF00
:020000040030CA
:0A000000FF09191EFF8180FF01FFB8
:00000001FF
