:0400000064EF05F0B4
:1003000000FFFF155BB9D010A08007AB280064E7A1
:100310001E41717D00C682554F0C9745B82DFC9744
:1003200080A1046ADF0FCFDFFFCBDBFBFAF9F8F720
:09033000D6E6F6E3F3F2F1F00069
:10033A0080B02ED0000E086E000E076E08BE06D0E2
:10034A00085012E10B0E075CD8B00ED00D0E066EE7
:10035A00FC0EE82EFED7062EFCD7074A082A08BE4E
:10036A00F5D7085001E1EED780B00DD0828C000E8F
:10037A00026E0A0E016EFAEC04F0829C000E056E03
:10038A00010E046E1200000E056E000E046E1200BD
:10039A0080B226D0000E0A6E000E096E0ABE06D082
:1003AA000A5012E10B0E095CD8B00ED00D0E066E83
:1003BA00FC0EE82EFED7062EFCD7094A0A2A0ABEE8
:1003CA00F5D70A5001E1EED780B205D0000E056ECE
:1003DA00020E046E1200000E056E000E046E12006C
:1003EA0081B026D0000E0C6E000E0B6E0CBE06D02D
:1003FA000C5012E10B0E0B5CD8B00ED00D0E066E2F
:10040A00FC0EE82EFED7062EFCD70B4A0C2A0CBE91
:10041A00F5D70C5001E1EED781B005D0000E056E7C
:10042A00030E046E1200000E056E000E046E12001A
:10043A0081BA26D0000E0E6E000E0D6E0EBE06D0CC
:10044A000E5012E10B0E0D5CD8B00ED00D0E066EDA
:10045A00FC0EE82EFED7062EFCD70D4A0E2A0EBE3B
:10046A00F5D70E5001E1EED781BA05D0000E056E20
:10047A00040E046E1200000E056E000E046E1200C9
:10048A0086B01200000E106E000E0F6E10BE06D05F
:10049A00105012E10B0E0F5CD8B00ED00D0E066E86
:1004AA00FC0EE82EFED7062EFCD70F4A102A10BEE5
:1004BA00F5D7105001E1EED786B005D0000E056ED3
:1004CA00050E046E1200000E056E000E046E120078
:1004DA00096EC580C5B0FED76FEC05F0200E8DEC15
:1004EA0004F00009D8B402D0010E12006FEC05F036
:1004FA0009508DEC04F06FEC05F0C582C5B2FED749
:10050A006FEC05F0210E8DEC04F06FEC05F056EC63
:10051A0005F00A6E6FEC05F0C59AC588C5B8FED716
:10052A006FEC05F056EC05F00B6E6FEC05F0C58A22
:10053A00C588C5B8FED76FEC05F0C584C5B4FED72B
:10054A006FEC05F00A50056E066A03C0D9FF04C0B5
:10055A00DAFF05C0DEFF06C0DDFF03C0D9FF04C015
:10056A00DAFFDE50DD6EDF6A03C0D9FF04C0DAFFAE
:10057A00DECF05F0DDCF06F00B50076E086A055096
:10058A0007120650081203C0D9FF04C0DAFF07C0D9
:10059A00DEFF08C0DDFF000E1200000E146E110E01
:1005AA00146401D018D01450020D010EF324F66E13
:1005BA00030EF420F76E1450020D340EF324D96E94
:1005CA00000EF420DA6E0900F5CFDEFF0800F5CF41
:1005DA00DDFF142AE4D734C012F035C013F034908A
:1005EA00000EE3EC03F00009D8B402D0010E1200A9
:1005FA00010E146E110E146401D00AD01450E3ECEB
:10060A0003F00009D8B402D0010E1200142AF2D75E
:10061A00010E1210346E1350356E000EE3EC03F027
:10062A000009D8B402D0010E1200000E026E140E98
:10063A00016EE1EC04F006D0000E026E020E016EAD
:10064A00E1EC04F0120E0C6E000E0D6EBCEC04F020
:10065A0012501310D8B4F0D782EC05F0000E120035
:10066A0012C02DF0120E2D6402D0120E2D6E250E20
:10067A00F66E030EF76E20EE17F0120E0900F5CF94
:10068A00DEFFE806FBE22D50010D170EF324D96EAA
:10069A00000EF420DA6EDF502C6E7F0E3A16F80E3A
:1006AA003B162C500F0B146E156A070ED890143691
:1006BA001536E82EFBD714503A1215503B12030E8A
:1006CA00E3EC03F00009D8A41200FF0E50160F0E37
:1006DA0051162CC014F0F00E14161450166E156A2A
:1006EA0015505012165051120E0EE3EC03F0000989
:1006FA00D8A41200000E026E020E016EE1EC04F0A4
:10070A002A0E0C6E000E0D6EBCEC04F00009D8A483
:10071A0012002A502B10ECD7000E026E140E016E36
:10072A00E1EC04F05DEC04F0320E0C6E000E0D6E7E
:10073A0078EC05F0100E321803E1100E3318D8A425
:10074A0080EC05F0D2EC02F00009D8A480EC05F0A8
:10075A009DEC01F004C030F005C031F013D01AEC62
:10076A0005F0F6D70BEC05F0F3D729EC05F0F0D736
:10077A0038EC05F0EDD7000E81EC05F0E9D780ECF6
:10078A0005F0E6D730C02EF031C02FF02F50000A06
:10079A00D8A4DED72E50010AD8B4E1D7030AD8B4B8
:1007AA00E1D7010AD8B4E1D7070AD8B4E1D7010AD8
:1007BA00D8B4E1D70D0AD8B4E2D7CAD7076E075022
:1007CA00020D340EF324D96E000EF420DA6EDECF59
:1007DA0003F0DDCF04F004C003F0046A0350056E91
:1007EA000750020D340EF324D96E000EF420DA6E8F
:1007FA00DF50066EC580C5B0FED76FEC05F0200E3F
:10080A008DEC04F00009D8B402D0010E12006FEC8E
:10081A0005F007508DEC04F06FEC05F005508DECF7
:10082A0004F06FEC05F006508DEC04F06FEC05F067
:10083A00C584C5B4FED76FEC05F0000E12004E0E4B
:10084A001224186EFD0E1320196E3992020EE3EC73
:10085A0003F00009D8A41200000E3816FE0E39164D
:10086A00000E146E020E156E18C016F019C017F09D
:10087A0014501612155017121650381217503912F2
:10088A00020EE3EC03F00009D8A41200000E026E77
:10089A00020E016EE1EC04F01A0E0C6E000E0D6EE3
:1008AA00BCEC04F00009D8A412001A501B10ECD7B3
:1008BA00720ED36E0F015A690F015B690F015C69F1
:1008CA00000E0F015D6F880E0F01596F360E0F0172
:1008DA00586F3F0EC16E030E926E210E936E180E64
:1008EA00946E9868000E806E000E816E000E826E05
:1008FA00F294080ED56E000ED76E000ED66ED58E07
:10090A00800E016E080E47EC05F03F0EC86E12000D
:10091A00026E02C0C9FFC6AE02D0FF0E1200C65058
:10092A000F0B080AD8B40FD0C6500F0B0B0AD8B455
:10093A000AD0C6889EA6FED7C7A4C7B002D0FE0EAC
:10094A001200000E1200C6500F0B080AD8B405D0C8
:10095A00C6500F0B0B0AD8A41200C7B0FED76FEC13
:10096A0005F0C5AC02D0FE0E1200000E1200100EE9
:10097A00036E000E046E130E6DEC02F00009D8B47B
:10098A0002D0010E1200200E1016000E1116105081
:10099A001110D8A405D0000E0F6E000E0E6E02D0F4
:1009AA000E680F680CC0D9FF0DC0DAFF0EC0DEFF5B
:1009BA000FC0DDFF000E1200000E046E000E036E63
:1009CA000FD0000E046E640E036E03D00306D8A087
:1009DA00040603500410D8A4F9D70106D8A00206C9
:1009EA0001500210D8B41200ECD707D0200E036EC3
:1009FA002A0EE82EFED7032EFCD70106D8A002063F
:100A0A000128F4E10228D8B41200F0D7040E136EBC
:100A1A00160E126E24EC04F0828E000E026E0A0E7E
:100A2A00016EFAEC04F0829E1200030E136EC40EDD
:100A3A00126E24EC04F0828C000E026E0A0E016E15
:100A4A00FAEC04F0829C1200000E136E120E126E63
:100A5A0035EC03F0828C000E026E0A0E016EFAEC7F
:100A6A0004F0829C1200000E136E0A0E126E35EC10
:100A7A0003F0828E000E026E0A0E016EFAEC04F08A
:100A8A00829E1200026E3F0EC716000EC66E000E40
:100A9A00C56E0250C6120150C71294869488C68A3F
:100AAA001200C6500F0B080AD8B404D0C6500F0B58
:100ABA000B0AD8B4C586C7A0FED7C950120000EEEB
:100ACA0034F0240EEE6AE806FDE1000EF86E00012D
:100ADA0091EF03F0C5CF01F01F0E0116D8A4FAD783
:100AEA00C7A41200F7D70CC003F00DC004F01C0E07
:0C0AFA006DEC02F01200FFD71200120099
:020000040020DA
:08000000FFFFFFFFFFFFFFFF00
:020000040030CA
:0A000000FF09191EFF8180FF01FFB8
:00000001FF
