:04000000FDEF07F019
:1003000000FFFF155BB9D010A08007AB280064E7A1
:100310001E41717D00C682554F0C9745B82DFC9744
:1003200080A1046ADF0FCFDFFFCBDBFBFAF9F8F720
:10033000D6E6F6E3F3F2F1F0010001000B00020053
:100340000B0000000B000F0003000E0003000F0065
:0903500001000200020009000096
:10035A0080B04FD0000E056E000E046E05BE06D0AA
:10036A00055012E10B0E045CD8B00ED00D0E036ED0
:10037A00FC0EE82EFED7032EFCD7044A052A05BE3A
:10038A00F5D7055001E1EED780B02AD0000E136EE2
:10039A00010E126E000E076E000E066E07BE06D024
:1003AA00075013E10B0E065CD8B00FD0130E036E84
:1003BA002D0EE82EFED7032EFCD700F0064A072A98
:1003CA0007BEF4D7075001E1EDD780B004D0000E84
:1003DA00136E060E126E12C001F013C002F0120064
:1003EA00000E136E000E126E12C001F013C002F05E
:1003FA00120080B24ED0000E096E000E086E09BEC1
:10040A0006D0095012E10B0E085CD8B00ED00D0EC2
:10041A00036EFC0EE82EFED7032EFCD7084A092AE3
:10042A0009BEF5D7095001E1EED780B229D0000EF6
:10043A00136E020E126E000E0B6E000E0A6E0BBECB
:10044A0006D00B5012E10B0E0A5CD8B00ED0200E6B
:10045A00036E2A0EE82EFED7032EFCD70A4A0B2A71
:10046A000BBEF5D70B5001E1EED780B204D0000ED7
:10047A00136E070E126E12C001F013C002F01200C2
:10048A00000E136E000E126E12C001F013C002F0BD
:10049A00120081B026D0000E0D6E000E0C6E0DBE3D
:1004AA0006D00D5012E10B0E0C5CD8B00ED00D0E1A
:1004BA00036EFC0EE82EFED7032EFCD70C4A0D2A3B
:1004CA000DBEF5D70D5001E1EED781B005D0000E73
:1004DA00026E030E016E1200000E026E000E016E15
:1004EA00120081BA26D0000E0F6E000E0E6E0FBEDD
:1004FA0006D00F5012E10B0E0E5CD8B00ED00D0EC6
:10050A00036EFC0EE82EFED7032EFCD70E4A0F2AE6
:10051A000FBEF5D70F5001E1EED781BA05D0000E14
:10052A00026E040E016E1200000E026E000E016EC3
:10053A00120086B025D0000E116E000E106E11BE8C
:10054A0006D0115012E10B0E105CD8B00ED00D0E71
:10055A00036EFC0EE82EFED7032EFCD7104A112A92
:10056A0011BEF5D7115001E1EED786B005D0000EC5
:10057A00026E050E016E1200000E026E000EFAD710
:10058A00000E026E000E016E1200000E1E6E000EAC
:10059A001D6E010E82EC07F0560EF66E030EF76E14
:1005AA000800F5CF08F0000E096E540EF66E030E21
:1005BA00F76E0800F550B8EC05F04A0EF66E030E19
:1005CA00F76E0800F5CF08F0000E096E480EF66EB9
:1005DA00030EF76E0800F550B8EC05F048EC07F08A
:1005EA004E0E0C241B6EFD0E0D201C6E000E3514D3
:1005FA00356EFE0E3614366E1B5035121C503612EE
:10060A00020E64EC06F0000E1FEC04F01F6E010EE1
:10061A001FEC04F0206E20501F5CD8B034D03E0E80
:10062A00F66E030EF76E0800F5CF08F0010E096E9C
:10063A003C0EF66E030EF76E0800F550B8EC05F0A6
:10064A00420EF66E030EF76E0800F5CF08F0010EA3
:10065A00096E400EF66E030EF76E0800F550B8EC00
:10066A0005F0460EF66E030EF76E0800F5CF08F099
:10067A00000E096E440EF66E030EF76E0800F55072
:10068A00B8EC05F033D03E0EF66E030EF76E080096
:10069A00F5CF08F0000E096E3C0EF66E030EF76EEB
:1006AA000800F550B8EC05F0420EF66E030EF76E30
:1006BA000800F5CF08F0000E096E400EF66E030E24
:1006CA00F76E0800F550B8EC05F0460EF66E030E0C
:1006DA00F76E0800F5CF08F0010E096E440EF66EAB
:1006EA00030EF76E0800F550B8EC05F0560EF66EDC
:1006FA00030EF76E0800F5CF08F0010E096E540ECE
:10070A00F66E030EF76E0800F550B8EC05F00BD044
:10071A00210E036E000E046E130EF0EC04F0200E90
:10072A0021141D6E1E6A1D501E10D8B4F1D7000E7A
:10073A0082EC07F01200256E000E276E000E266E60
:10074A00010E82EC07F0560EF66E030EF76E0800E5
:10075A00F5CF08F0000E096E540EF66E030EF76E12
:10076A000800F550B8EC05F04A0EF66E030EF76E67
:10077A000800F5CF08F0000E096E480EF66E030E5B
:10078A00F76E0800F550B8EC05F02550D4EC06F0E9
:10079A004A0EF66E030EF76E0800F5CF08F0010E4A
:1007AA00096E480EF66E030EF76E0800F550B8ECA7
:1007BA0005F00ED0280E036E000E046E130EF0EC38
:1007CA0004F00009D8A41200200E2814266E276A05
:1007DA0026502710D8B4EED7280E036E000E046EEA
:1007EA00130EF0EC04F00009D8A41200100E28141D
:1007FA00266E276A26502710D8A4CAEC02F0000EEB
:10080A0082EC07F048EC07F04E0E0C24236EFD0E26
:10081A000D20246E000E3514356EFE0E3614366E1B
:10082A002350351224503612020E64EC06F048ECBE
:10083A0007F01200156E000E186E000E176E000EED
:10084A00166E1504D8A406D0050E4710476E800E02
:10085A00481005D0FA0E4714476E7F0E4814486EAA
:10086A000B0E64EC06F0560EF66E030EF76E0800D9
:10087A00F5CF08F0010E096E540EF66E030EF76EF0
:10088A000800F550B8EC05F010D0190E036E000EF2
:10089A00046E130EF0EC04F00009D8B402D0010E75
:1008AA001200200E1914166E176A16501710D8B4B3
:1008BA00ECD7190E036E000E046E130EF0EC04F062
:1008CA000009D8B402D0010E120019C012F01AC0E1
:1008DA0013F0090E146ED89013321232142EFBD76D
:1008EA0012507F0B186E560EF66E030EF76E080046
:1008FA00F5CF08F0000E096E540EF66E030EF76E71
:10090A000800F550B8EC05F018501200000E026EFF
:10091A00140E016E69EC07F001EC07F0828C2F0EC1
:10092A000C6E000E0D6E23EC08F0100E2F1803E16A
:10093A00100E3018D8A42BEC08F055EC05F000097D
:10094A00D8A42BEC08F0030E136EC40E126E17EC2B
:10095A0006F0ADEC01F001C02DF002C02EF019D066
:10096A00B5EC07F0F6D7A6EC07F0F3D7D3EC07F00F
:10097A00F0D7E1EC07F0EDD7000E2CEC08F0E9D740
:10098A0008EC08F0E6D711EC08F0E3D72BEC08F0F6
:10099A00E0D72DC02BF02EC02CF02C50000AD8A482
:1009AA00D8D72B50010AD8B4DBD7030AD8B4DBD77F
:1009BA00010AD8B4DBD7070AD8B4DBD7010AD8B4FE
:1009CA00DBD7030AD8B4DCD7010AD8B4DCD70F0ABC
:1009DA00D8B4DCD7BED7096EC580C5B0FED71AEC2D
:1009EA0008F0200EA5EC06F00009D8B402D0010EDA
:1009FA0012001AEC08F00950A5EC06F01AEC08F0FF
:100A0A00C582C5B2FED71AEC08F0210EA5EC06F095
:100A1A001AEC08F0EFEC07F00A6E1AEC08F0C59A27
:100A2A00C588C5B8FED71AEC08F0EFEC07F00B6ED4
:100A3A001AEC08F0C58AC588C5B8FED71AEC08F0C2
:100A4A00C584C5B4FED71AEC08F00A50056E066ACA
:100A5A0003C0D9FF04C0DAFF05C0DEFF06C0DDFF10
:100A6A0003C0D9FF04C0DAFFDE50DD6EDF6A03C0BF
:100A7A00D9FF04C0DAFFDECF05F0DDCF06F00B5058
:100A8A00076E086A055007120650081203C0D9FFFC
:100A9A0004C0DAFF07C0DEFF08C0DDFF000E120047
:100AAA00000E146E110E146401D018D01450020DE9
:100ABA00010EF324F66E030EF420F76E1450020DA5
:100ACA00310EF324D96E000EF420DA6E0900F5CF48
:100ADA00DEFF0800F5CFDDFF142AE4D731C012F09B
:100AEA0032C013F03190000E64EC06F00009D8B45D
:100AFA0002D0010E1200010E146E110E146401D000
:100B0A000AD0145064EC06F00009D8B402D0010EE1
:100B1A001200142AF2D7010E1210316E1350326EDF
:100B2A00000E64EC06F00009D8B402D0010E1200DF
:100B3A00000E026E140E016E69EC07F006D0000E6C
:100B4A00026E020E016E69EC07F0120E0C6E000EB8
:100B5A000D6E25EC07F012501310D8B4F0D72DEC17
:100B6A0008F0000E1200116E0904D8A42AD0115000
:100B7A00020D310EF324D96E000EF420DA6EDECFA8
:100B8A000AF0DDCF0BF008C00CF0010E0D6E000E5E
:100B9A000E6E0C2A03D0D8900D360E360C2EFBD7CB
:100BAA000A500D120B500E121150020D310EF32481
:100BBA00D96E000EF420DA6E0DC0DEFF0EC0DDFF26
:100BCA002DD01150020D310EF324D96E000EF420EF
:100BDA00DA6EDECF0AF0DDCF0BF008C00CF0010EA2
:100BEA000D6E000E0E6E0C2A03D0D8900D360E36FE
:100BFA000C2EFBD70D1C0F6E0E1C106E0A500F1612
:100C0A000B5010161150020D310EF324D96E000E3E
:100C1A00F420DA6E0FC0DEFF10C0DDFF115064EC65
:100C2A0006F012004E0E12241A6EFD0E13201B6ED1
:100C3A001B5008E1B90E1A5CD8B004D0000E1B6E26
:100C4A00B90E09D0870E1A5C010E1B58D8A004D021
:100C5A00010E1B6E860E1A6E3692020E64EC06F0B8
:100C6A000009D8A41200000E3516FE0E3616000E24
:100C7A00146E020E156E1AC016F01BC017F014502F
:100C8A001612155017121650351217503612020E38
:100C9A0064EC06F00009D8A41200000E026E020EDF
:100CAA00016E69EC07F0180E0C6E000E0D6E25EC45
:100CBA0007F00009D8A4120018501910ECD7076ED3
:100CCA000750020D310EF324D96E000EF420DA6EAD
:100CDA00DECF03F0DDCF04F004C003F0046A035052
:100CEA00056E0750020D310EF324D96E000EF42062
:100CFA00DA6EDF50066EC580C5B0FED71AEC08F072
:100D0A00200EA5EC06F00009D8B402D0010E12009C
:100D1A001AEC08F00750A5EC06F01AEC08F005509A
:100D2A00A5EC06F01AEC08F00650A5EC06F01AEC51
:100D3A0008F0C584C5B4FED71AEC08F0000E1200FC
:100D4A00026E02C0C9FFC6AE02D0FF0E1200C65024
:100D5A000F0B080AD8B40FD0C6500F0B0B0AD8B421
:100D6A000AD0C6889EA6FED7C7A4C7B002D0FE0E78
:100D7A001200000E1200C6500F0B080AD8B405D094
:100D8A00C6500F0B0B0AD8A41200C7B0FED71AEC34
:100D9A0008F0C5AC02D0FE0E1200000E1200126E50
:100DAA00640E1218D8A412D04E0EF66E030EF76E09
:100DBA000800F5CF08F0000E096E4C0EF66E030E11
:100DCA00F76E0800F550B8EC05F01200750E12180F
:100DDA00D8A412004E0EF66E030EF76E0800F5CF79
:100DEA0008F0010E096E4C0EF66E030EF76E08003F
:100DFA00F550B8EC05F01200720ED36E360E0F01E4
:100E0A00586F3F0EC16E030E926E210E936E180E2E
:100E1A00946E9868000E806E000E816E000E826ECF
:100E2A00F294080ED56E000ED76E000ED66ED58ED1
:100E3A00800E016E080EC4EC07F03F0EC86E120059
:100E4A00100E036E000E046E130EF0EC04F000098F
:100E5A00D8B402D0010E1200200E1016000E111680
:100E6A0010501110D8B402D0010E01D0000E0E6E2F
:100E7A000F6A0CC0D9FF0DC0DAFF0EC0DEFF0FC02B
:100E8A00DDFF000E1200130E036E000E046E130E29
:100E9A00F0EC04F0FF0E0E6E010E0F6E13C010F090
:100EAA0014C011F0070E126ED89011321032122EA1
:100EBA00FBD70E5010160F501116B20E10240C6EDE
:100ECA00020E11200D6E1200000E046E000E036E4B
:100EDA000FD0000E046E640E036E03D00306D8A072
:100EEA00040603500410D8A4F9D70106D8A00206B4
:100EFA0001500210D8B41200ECD7126E3A0EF66EF8
:100F0A00030EF76E0800F5CF08F012C009F0380E8C
:100F1A00F66E030EF76E0800F550B8EC05F01200F5
:100F2A0007D0200E036E2A0EE82EFED7032EFCD71A
:100F3A000106D8A002060128F4E10228D8B412005A
:100F4A00F0D7030E136EBE0E126E17EC06F0828EE9
:100F5A00000E026E0A0E016E95EC07F0829E1200D8
:100F6A00030E136EC40E126E17EC06F0828C000E7E
:100F7A00026E0A0E016E95EC07F0829C1200026E58
:100F8A003F0EC716000EC66E000EC56E0250C61280
:100F9A000150C71294869488C68A1200750E2A6E6A
:100FAA002A50A0EC03F0828C000E026E0A0E016E2B
:100FBA0095EC07F0829C1200640E2A6E2A50A0EC6F
:100FCA0003F0828E000E026E0A0E016E95EC07F097
:100FDA00829E1200C6500F0B080AD8B404D0C6501D
:100FEA000F0B0B0AD8B4C586C7A0FED7C95012008A
:100FFA0000EE31F0240EEE6AE806FDE1000EF86E0E
:10100A0000018BEF04F0828E000E026E0A0E016E52
:10101A0095EC07F0829E1200828E000E026E0A0E76
:10102A00016E95EC07F0829E1200C5CF01F01F0EEB
:10103A000116D8A4FAD7C7A41200F7D70CC003F038
:10104A000DC004F01C0EF0EC04F01200FFD71200E1
:02105A00120082
:020000040020DA
:08000000FFFFFFFFFFFFFFFF00
:020000040030CA
:0A000000FF09191EFF8180FF01FFB8
:00000001FF
