:0400000062EF04F0B7
:1003000000FFFF155BB9D010A08007AB280064E7A1
:100310001E41717D00C682554F0C9745B82DFC9744
:1003200080A1046ADF0080B020D0000E2A6E000E8B
:10033000296E2ABE06D02A5012E10B0E295CD8B0D5
:100340000ED00D0E286EFC0EE82EFED7282EFCD700
:10035000294A2A2A2ABEF5D72A5001E1EED780B0D1
:1003600002D0010E1200000E120080B228D0000E42
:100370002C6E000E2B6E2CBE06D02C5012E10B0EF4
:100380002B5CD8B00ED00D0E286EFC0EE82EFED7DA
:10039000282EFCD72B4A2C2A2CBEF5D72C5001E155
:1003A000EED780B20AD08182000E266E140E256E22
:1003B00034EC04F08192020E1200000E120081B0A3
:1003C00020D0000E2E6E000E2D6E2EBE06D02E50AA
:1003D00012E10B0E2D5CD8B00ED00D0E286EFC0E67
:1003E000E82EFED7282EFCD72D4A2E2A2EBEF5D772
:1003F0002E5001E1EED781B002D0030E1200000EA4
:10040000120081BA20D0000E306E000E2F6E30BE6A
:1004100006D0305012E10B0E2F5CD8B00ED00D0E6E
:10042000286EFC0EE82EFED7282EFCD72F4A302A45
:1004300030BEF5D7305001E1EED781BA02D0040EBC
:100440001200000E120086B020D0000E326E000E98
:10045000316E32BE06D0325012E10B0E315CD8B094
:100460000ED00D0E286EFC0EE82EFED7282EFCD7DF
:10047000314A322A32BEF5D7325001E1EED786B08A
:1004800002D0050E1200000E1200000E12002D6E9A
:10049000C580C5B0FED77FEC04F0200EC9EC03F098
:1004A0000009D8B402D0010E12007FEC04F02D50E8
:1004B000C9EC03F07FEC04F0C582C5B2FED77FEC37
:1004C00004F0210EC9EC03F07FEC04F054EC04F0CE
:1004D0002E6E7FEC04F0C59AC588C5B8FED77FECB8
:1004E00004F054EC04F02F6E7FEC04F0C58AC5884C
:1004F000C5B8FED77FEC04F0C584C5B4FED77FEC49
:1005000004F02E50296E2A6A27C0D9FF28C0DAFFCE
:1005100029C0DEFF2AC0DDFF27C0D9FF28C0DAFFCF
:10052000DE50DD6EDF6A27C0D9FF28C0DAFFDECFDC
:1005300029F0DDCF2AF02F502B6E2C6A29502B1278
:100540002A502C1227C0D9FF28C0DAFF2BC0DEFFAB
:100550002CC0DDFF000E1200000E386E110E386444
:1005600001D018D03850020D010EF324F66E030EA0
:10057000F420F76E3850020D010EF324D96E000EF0
:10058000F420DA6E0900F5CFDEFF0800F5CFDDFFBD
:10059000382AE4D701C036F002C037F00190000ECF
:1005A00058EC03F00009D8B402D0010E1200010E7D
:1005B000386E110E386401D00AD0385058EC03F070
:1005C0000009D8B402D0010E1200382AF2D7010E69
:1005D0003610016E3750026E000E58EC03F0000921
:1005E000D8B402D0010E1200000E266E140E256E35
:1005F0001BEC04F006D0000E266E020E256E1BECDE
:1006000004F0360E306E000E316EF8EC03F036500A
:100610003710D8B4F0D794EC04F0000E1200000E9E
:10062000266E140E256E1BEC04F099EC03F03A0EC6
:10063000306E000E316E88EC04F0100E3A1803E1B3
:10064000100E3B18D8A490EC04F0ACEC02F00009BA
:10065000D8A490EC04F093EC01F0396E15D076EC50
:1006600004F0F9D76DEC04F0F6D7000E91EC04F02D
:10067000F2D7000E92EC04F0EED7000E93EC04F0EB
:10068000EAD790EC04F0E7D73950010AD8B4E7D79D
:10069000030AD8B4E7D7010AD8B4E7D7070AD8B411
:1006A000E8D7010AD8B4E9D70D0AD8B4EAD7D3D726
:1006B0002B6E2B50020D010EF324D96E000EF42088
:1006C000DA6EDECF27F0DDCF28F028C027F0286AC9
:1006D0002750296E2B50020D010EF324D96E000E07
:1006E000F420DA6EDF502A6EC580C5B0FED77FECED
:1006F00004F0200EC9EC03F00009D8B402D0010EBA
:1007000012007FEC04F02B50C9EC03F07FEC04F0F6
:100710002950C9EC03F07FEC04F02A50C9EC03F037
:100720007FEC04F0C584C5B4FED77FEC04F0000E66
:100730001200720ED36E0F015A690F015B690F012F
:100740005C69000E0F015D6F880E0F01596F360E48
:100750000F01586F3F0EC16E030E926E210E936E05
:10076000180E946E9868000E806E000E816E000E5A
:10077000826EF294080ED56E000ED76E000ED66E05
:10078000D58E800E256E080E45EC04F03F0EC86E27
:100790001200266E26C0C9FFC6AE02D0FF0E1200A0
:1007A000C6500F0B080AD8B40FD0C6500F0B0B0A57
:1007B000D8B40AD0C6889EA6FED7C7A4C7B002D0B8
:1007C000FE0E1200000E1200C6500F0B080AD8B41D
:1007D00005D0C6500F0B0B0AD8A41200C7B0FED725
:1007E0007FEC04F0C5AC02D0FE0E1200000E120029
:1007F000340E276E000E286E130E47EC02F000092F
:10080000D8B402D0010E1200200E3416000E351698
:1008100034503510D8B402D0010E01D0000E326E23
:10082000336A30C0D9FF31C0DAFF32C0DEFF33C0D7
:10083000DDFF000E1200000E286E000E276E0FD096
:10084000000E286E640E276E03D02706D8A0280657
:1008500027502810D8A4F9D72506D8A02606255059
:100860002610D8B41200ECD707D0200E276E2A0E1F
:10087000E82EFED7272EFCD72506D8A02606252849
:10088000F4E12628D8B41200F0D7266E3F0EC71622
:10089000000EC66E000EC56E2650C6122550C71239
:1008A00094869488C68A1200C6500F0B080AD8B4E2
:1008B00004D0C6500F0B0B0AD8B4C586C7A0FED70C
:1008C000C950120000EE01F0240EEE6AE806FDE1C8
:1008D000000EF86E00010FEF03F08184000E266E0B
:1008E000140E256E34EC04F0819412008182000E07
:1008F000266E140E256E34EC04F081921200C5CFE2
:1009000025F01F0E2516D8A4FAD7C7A41200F7D7D2
:1009100030C027F031C028F01C0E47EC02F0120066
:0A092000FFD71200120012001200AF
:020000040020DA
:08000000FFFFFFFFFFFFFFFF00
:020000040030CA
:0A000000FF09191EFF8180FF01FFB8
:00000001FF
