:040000005BEF05F0BD
:1003000000FFFF155BB9D010A08007AB280064E7A1
:100310001E41717D00C682554F0C9745B82DFC9744
:1003200080A1046ADF0FCFDFFFCBDBFBFAF9F8F720
:09033000D6E6F6E3F3F2F1F00069
:10033A0080B026D0000E056E000E046E05BE06D0F3
:10034A00055012E10B0E045CD8B00ED00D0E036EF0
:10035A00FC0EE82EFED7032EFCD7044A052A05BE5A
:10036A00F5D7055001E1EED780B005D0000E026E38
:10037A00010E016E1200000E026E000E016E1200D6
:10038A0080B226D0000E076E000E066E07BE06D09B
:10039A00075012E10B0E065CD8B00ED00D0E036E9C
:1003AA00FC0EE82EFED7032EFCD7064A072A07BE04
:1003BA00F5D7075001E1EED780B205D0000E026EE4
:1003CA00020E016E1200000E026E000E016E120085
:1003DA0081B026D0000E096E000E086E09BE06D046
:1003EA00095012E10B0E085CD8B00ED00D0E036E48
:1003FA00FC0EE82EFED7032EFCD7084A092A09BEAE
:10040A00F5D7095001E1EED781B005D0000E026E92
:10041A00030E016E1200000E026E000E016E120033
:10042A0081BA26D0000E0B6E000E0A6E0BBE06D0E5
:10043A000B5012E10B0E0A5CD8B00ED00D0E036EF3
:10044A00FC0EE82EFED7032EFCD70A4A0B2A0BBE57
:10045A00F5D70B5001E1EED781BA05D0000E026E36
:10046A00040E016E1200000E026E000E016E1200E2
:10047A0086B01200000E0D6E000E0C6E0DBE06D078
:10048A000D5012E10B0E0C5CD8B00ED00D0E036E9F
:10049A00FC0EE82EFED7032EFCD70C4A0D2A0DBE01
:1004AA00F5D70D5001E1EED786B005D0000E026EE9
:1004BA00050E016E1200000E026E000E016E120091
:1004CA00096EC580C5B0FED766EC05F0200E86EC35
:1004DA0004F00009D8B402D0010E120066EC05F04F
:1004EA00095086EC04F066EC05F0C582C5B2FED769
:1004FA0066EC05F0210E86EC04F066EC05F04DEC96
:10050A0005F00A6E66EC05F0C59AC588C5B8FED72F
:10051A0066EC05F04DEC05F00B6E66EC05F0C58A4D
:10052A00C588C5B8FED766EC05F0C584C5B4FED744
:10053A0066EC05F00A50056E066A03C0D9FF04C0CE
:10054A00DAFF05C0DEFF06C0DDFF03C0D9FF04C025
:10055A00DAFFDE50DD6EDF6A03C0D9FF04C0DAFFBE
:10056A00DECF05F0DDCF06F00B50076E086A0550A6
:10057A0007120650081203C0D9FF04C0DAFF07C0E9
:10058A00DEFF08C0DDFF000E1200000E146E110E11
:10059A00146401D018D01450020D010EF324F66E23
:1005AA00030EF420F76E1450020D340EF324D96EA4
:1005BA00000EF420DA6E0900F5CFDEFF0800F5CF51
:1005CA00DDFF142AE4D734C012F035C013F034909A
:1005DA00000EDCEC03F00009D8B402D0010E1200C0
:1005EA00010E146E110E146401D00AD01450DCEC02
:1005FA0003F00009D8B402D0010E1200142AF2D76F
:10060A00010E1210346E1350356E000EDCEC03F03E
:10061A000009D8B402D0010E1200000E026E140EA8
:10062A00016ED8EC04F006D0000E026E020E016EC6
:10063A00D8EC04F0120E0C6E000E0D6EB5EC04F040
:10064A0012501310D8B4F0D779EC05F0000E12004E
:10065A0012C02DF0120E2D6402D0120E2D6E250E30
:10066A00F66E030EF76E20EE17F0120E0900F5CFA4
:10067A00DEFFE806FBE22D50010D170EF324D96EBA
:10068A00000EF420DA6EDF502C6E7F0E3A16F80E4A
:10069A003B162C500F0B146E156A070ED8901436A1
:1006AA001536E82EFBD714503A1215503B12030E9A
:1006BA00DCEC03F00009D8A41200FF0E50160F0E4E
:1006CA0051162CC014F0F00E14161450166E156A3A
:1006DA0015505012165051120E0EDCEC03F00009A0
:1006EA00D8A41200000E026E020E016ED8EC04F0BD
:1006FA002A0E0C6E000E0D6EB5EC04F00009D8A49B
:10070A0012002A502B10ECD7000E026E140E016E46
:10071A00D8EC04F056EC04F0828C320E0C6E000E0B
:10072A000D6E6FEC05F0100E321803E1100E33183F
:10073A00D8A477EC05F0CAEC02F00009D8A477EC4B
:10074A0005F09DEC01F001C030F002C031F013D089
:10075A0011EC05F0F6D702EC05F0F3D720EC05F022
:10076A00F0D72FEC05F0EDD7000E78EC05F0E9D7BD
:10077A0077EC05F0E6D730C02EF031C02FF02F50BD
:10078A00000AD8A4DED72E50010AD8B4E1D7030A4A
:10079A00D8B4E1D7010AD8B4E1D7070AD8B4E1D767
:1007AA00010AD8B4E1D70D0AD8B4E2D7CAD7076E7E
:1007BA000750020D340EF324D96E000EF420DA6EBF
:1007CA00DECF03F0DDCF04F004C003F0046A035067
:1007DA00056E0750020D340EF324D96E000EF42074
:1007EA00DA6EDF50066EC580C5B0FED766EC05F03E
:1007FA00200E86EC04F00009D8B402D0010E1200D3
:10080A0066EC05F0075086EC04F066EC05F005503E
:10081A0086EC04F066EC05F0065086EC04F066EC13
:10082A0005F0C584C5B4FED766EC05F0000E1200CB
:10083A004E0E1224186EFD0E1320196E3992020EF6
:10084A00DCEC03F00009D8A41200000E3816FE0EE4
:10085A003916000E146E020E156E18C016F019C065
:10086A0017F0145016121550171216503812175046
:10087A003912020EDCEC03F00009D8A41200000EB3
:10088A00026E020E016ED8EC04F01A0E0C6E000E07
:10089A000D6EB5EC04F00009D8A412001A501B1012
:1008AA00ECD7720ED36E0F015A690F015B690F0103
:1008BA005C69000E0F015D6F880E0F01596F360ECD
:1008CA000F01586F3F0EC16E030E926E210E936E8A
:1008DA00180E946E9868000E806E000E816E000EDF
:1008EA00826EF294080ED56E000ED76E000ED66E8A
:1008FA00D58E800E016E080E3EEC05F03F0EC86ED6
:10090A001200026E02C0C9FFC6AE02D0FF0E12006C
:10091A00C6500F0B080AD8B40FD0C6500F0B0B0ADB
:10092A00D8B40AD0C6889EA6FED7C7A4C7B002D03C
:10093A00FE0E1200000E1200C6500F0B080AD8B4A1
:10094A0005D0C6500F0B0B0AD8A41200C7B0FED7A9
:10095A0066EC05F0C5AC02D0FE0E1200000E1200C5
:10096A00100E036E000E046E130E65EC02F0000901
:10097A00D8B402D0010E1200200E1016000E111665
:10098A0010501110D8B402D0010E01D0000E0E6E14
:10099A000F6A0CC0D9FF0DC0DAFF0EC0DEFF0FC010
:1009AA00DDFF000E1200000E046E000E036E0FD063
:1009BA00000E046E640E036E03D00306D8A004066C
:1009CA0003500410D8A4F9D70106D8A00206015092
:1009DA000210D8B41200ECD707D0200E036E2A0EEC
:1009EA00E82EFED7032EFCD70106D8A0020601285E
:1009FA00F4E10228D8B41200F0D7040E136E160ED2
:100A0A00126E1DEC04F0828E000E026E0A0E016E4A
:100A1A00F1EC04F0829E1200030E136EC40E126EE5
:100A2A001DEC04F0828C000E026E0A0E016EF1ECCF
:100A3A0004F0829C1200000E136E120E126E2DEC40
:100A4A0003F0828C000E026E0A0E016EF1EC04F0C5
:100A5A00829C1200000E136E0A0E126E2DEC03F029
:100A6A00828E000E026E0A0E016EF1EC04F0829E76
:100A7A001200026E3F0EC716000EC66E000EC56E3D
:100A8A000250C6120150C71294869488C68A120070
:100A9A00C6500F0B080AD8B404D0C6500F0B0B0A65
:100AAA00D8B4C586C7A0FED7C950120000EE34F0EC
:100ABA00240EEE6AE806FDE1000EF86E000189EFE9
:100ACA0003F0C5CF01F01F0E0116D8A4FAD7C7A4A8
:100ADA001200F7D70CC003F00DC004F01C0E65EC31
:0A0AEA0002F01200FFD71200120004
:020000040020DA
:08000000FFFFFFFFFFFFFFFF00
:020000040030CA
:0A000000FF09191EFF8180FF01FFB8
:00000001FF
