:04000000E0EF04F039
:1003000000FFFF155BB9D010A08007AB280064E7A1
:100310001E41717D00C682554F0C9745B82DFC9744
:1003200080A1046ADF0080B02ED0000E2C6E000E7B
:100330002B6E2CBE06D02C5012E10B0E2B5CD8B0CD
:100340000ED00D0E2A6EFC0EE82EFED72A2EFCD7FC
:100350002B4A2C2A2CBEF5D72C5001E1EED780B0C9
:100360000DD0828C000E266E0A0E256E94EC04F0E1
:10037000829C000E296E010E286E1200000E296E5E
:10038000000E286E120080B226D0000E2E6E000ED7
:100390002D6E2EBE06D02E5012E10B0E2D5CD8B065
:1003A0000ED00D0E2A6EFC0EE82EFED72A2EFCD79C
:1003B0002D4A2E2A2EBEF5D72E5001E1EED780B25F
:1003C00005D0000E296E020E286E1200000E296E56
:1003D000000E286E120081B026D0000E306E000E86
:1003E0002F6E30BE06D0305012E10B0E2F5CD8B00D
:1003F0000ED00D0E2A6EFC0EE82EFED72A2EFCD74C
:100400002F4A302A30BEF5D7305001E1EED781B007
:1004100005D0000E296E030E286E1200000E296E04
:10042000000E286E120081BA26D0000E326E000E29
:10043000316E32BE06D0325012E10B0E315CD8B0B4
:100440000ED00D0E2A6EFC0EE82EFED72A2EFCD7FB
:10045000314A322A32BEF5D7325001E1EED781BAA5
:1004600005D0000E296E040E286E1200000E296EB3
:10047000000E286E120086B01200000E346E000EC0
:10048000336E34BE06D0345012E10B0E335CD8B05C
:100490000ED00D0E2A6EFC0EE82EFED72A2EFCD7AB
:1004A000334A342A34BEF5D7345001E1EED786B052
:1004B00005D0000E296E050E286E1200000E296E62
:1004C000000E286E12002D6EC580C5B0FED7EBEC75
:1004D00004F0200E29EC04F00009D8B402D0010E7B
:1004E0001200EBEC04F02D5029EC04F0EBEC04F0DE
:1004F000C582C5B2FED7EBEC04F0210E29EC04F066
:10050000EBEC04F0D2EC04F02E6EEBEC04F0C59AA8
:10051000C588C5B8FED7EBEC04F0D2EC04F02F6E22
:10052000EBEC04F0C58AC588C5B8FED7EBEC04F047
:10053000C584C5B4FED7EBEC04F02E50296E2A6AB0
:1005400027C0D9FF28C0DAFF29C0DEFF2AC0DDFF9F
:1005500027C0D9FF28C0DAFFDE50DD6EDF6A27C072
:10056000D9FF28C0DAFFDECF29F0DDCF2AF02F50E7
:100570002B6E2C6A29502B122A502C1227C0D9FF1F
:1005800028C0DAFF2BC0DEFF2CC0DDFF000E1200FA
:10059000000E386E110E386401D018D03850020D9C
:1005A000010EF324F66E030EF420F76E3850020DA0
:1005B000010EF324D96E000EF420DA6E0900F5CF97
:1005C000DEFF0800F5CFDDFF382AE4D701C036F0A2
:1005D00002C037F00190000E7FEC03F00009D8B4A0
:1005E00002D0010E1200010E386E110E386401D0D7
:1005F0000AD038507FEC03F00009D8B402D0010EC5
:100600001200382AF2D7010E3610016E3750026EF2
:10061000000E7FEC03F00009D8B402D0010E1200E6
:10062000000E266E140E256E7BEC04F006D0000E34
:10063000266E020E256E7BEC04F0360E306E000E38
:10064000316E58EC04F036503710D8B4F0D700ECC7
:1006500005F0000E1200000E266E140E256E7BECC7
:1006600004F0F9EC03F0440E306E000E316EF4EC41
:1006700004F0100E441803E1100E4518D8A4FCEC49
:1006800004F0C8EC02F00009D8A4FCEC04F093ECF0
:1006900001F028C042F029C043F015D0B4EC04F0BA
:1006A000F6D7A5EC04F0F3D7000EFDEC04F0EFD77D
:1006B000000EFEEC04F0EBD7000EFFEC04F0E7D7E1
:1006C000FCEC04F0E4D742C040F043C041F041509C
:1006D000000AD8A4DCD74050010AD8B4DFD7030AF7
:1006E000D8B4DFD7010AD8B4DFD7070AD8B4E0D727
:1006F000010AD8B4E1D70D0AD8B4E2D7C8D72B6E17
:100700002B50020D010EF324D96E000EF420DA6E88
:10071000DECF27F0DDCF28F028C027F0286A275049
:10072000296E2B50020D010EF324D96E000EF42019
:10073000DA6EDF502A6EC580C5B0FED7EBEC04F050
:10074000200E29EC04F00009D8B402D0010E1200EA
:10075000EBEC04F02B5029EC04F0EBEC04F0295006
:1007600029EC04F0EBEC04F02A5029EC04F0EBEC5B
:1007700004F0C584C5B4FED7EBEC04F0000E120003
:100780004E0E36243C6EFD0E37203D6E0692020E54
:100790007FEC03F00009D8A41200000E0516FE0E2F
:1007A0000616000E386E020E396E3CC03AF03DC09F
:1007B0003BF038503A1239503B123A5005123B5038
:1007C0000612020E7FEC03F00009D8A41200000EFE
:1007D000266E020E256E7BEC04F03E0E306E000E8F
:1007E000316E58EC04F00009D8A412003E503F10BE
:1007F000ECD7720ED36E0F015A690F015B690F01BE
:100800005C69000E0F015D6F880E0F01596F360E87
:100810000F01586F3F0EC16E030E926E210E936E44
:10082000180E946E9868000E806E000E816E000E99
:10083000826EF294080ED56E000ED76E000ED66E44
:10084000D58E800E256E080EC3EC04F03F0EC86EE8
:100850001200266E26C0C9FFC6AE02D0FF0E1200DF
:10086000C6500F0B080AD8B40FD0C6500F0B0B0A96
:10087000D8B40AD0C6889EA6FED7C7A4C7B002D0F7
:10088000FE0E1200000E1200C6500F0B080AD8B45C
:1008900005D0C6500F0B0B0AD8A41200C7B0FED764
:1008A000EBEC04F0C5AC02D0FE0E1200000E1200FC
:1008B000340E276E000E286E130E63EC02F0000952
:1008C000D8B402D0010E1200200E3416000E3516D8
:1008D00034503510D8B402D0010E01D0000E326E63
:1008E000336A30C0D9FF31C0DAFF32C0DEFF33C017
:1008F000DDFF000E1200000E286E000E276E0FD0D6
:10090000000E286E640E276E03D02706D8A0280696
:1009100027502810D8A4F9D72506D8A02606255098
:100920002610D8B41200ECD707D0200E276E2A0E5E
:10093000E82EFED7272EFCD72506D8A02606252888
:10094000F4E12628D8B41200F0D7040E376E160E44
:10095000366EC0EC03F0828E000E266E0A0E256EF7
:1009600094EC04F0829E1200030E376EC40E366EB5
:10097000C0EC03F0828C000E266E0A0E256E94ECFD
:1009800004F0829C1200266E3F0EC716000EC66E43
:10099000000EC56E2650C6122550C7129486948844
:1009A000C68A1200C6500F0B080AD8B404D0C6502D
:1009B0000F0B0B0AD8B4C586C7A0FED7C9501200CA
:1009C00000EE01F0240EEE6AE806FDE1000EF86E7E
:1009D00000012BEF03F0C5CF25F01F0E2516D8A47C
:1009E000FAD7C7A41200F7D730C027F031C028F0DB
:1009F0001C0E63EC02F01200FFD71200120012006E
:020A00001200E2
:020000040020DA
:08000000FFFFFFFFFFFFFFFF00
:020000040030CA
:0A000000FF09191EFF8180FF01FFB8
:00000001FF
